:020000040000FA
:1000000040180020250200006502000009020000DF
:10001000690200006B0200006D0200000000000099
:100020000000000000000000000000006F0200005F
:100030007102000000000000730200007502000061
:1000400077020000770200007702000077020000CC
:1000500077020000770200007702000077020000BC
:1000600077020000770200007702000077020000AC
:10007000770200007702000077020000770200009C
:10008000770200007702000077020000770200008C
:10009000770200007702000077020000770200007C
:1000A000770200007702000077020000770200006C
:1000B000770200007702000077020000770200005C
:1000C00077020000F10F00007702000077020000C5
:1000D0003D10000077020000770200007702000068
:1000E000770200007702000077020000770200002C
:1000F000770200007702000077020000770200001C
:10010000770200007702000077020000770200000B
:1001100077020000770200007702000077020000FB
:1001200077020000770200007702000077020000EB
:1001300077020000770200007702000077020000DB
:1001400077020000770200007702000077020000CB
:1001500077020000770200007702000077020000BB
:1001600077020000770200007702000077020000AB
:10017000770200007702000077020000770200009B
:10018000770200007702000077020000770200008B
:10019000770200007702000077020000770200007B
:1001A000770200007702000077020000770200006B
:1001B000770200007702000077020000770200005B
:1001C000770200007702000077020000770200004B
:1001D000770200007702000077020000770200003B
:1001E000770200007702000077020000770200002B
:1001F00077020000DFF80CD000F08CF800480047D0
:10020000F51800004018002004207146084202D072
:10021000EFF3098001E0EFF308807146004A1047D0
:10022000E10C000014484FF0590101604FF0160135
:1002300001604FF0880101601048416841F480413D
:1002400041600F48416841F002014160416841F05E
:10025000040141600B48804707484FF000010160EE
:1002600009480047FEE7FEE7FEE7FEE7FEE7FEE798
:10027000FEE7FEE7FEE7FEE7000100400002004067
:1002800000700040990E0000F501000040EA0103F3
:100290009B0703D009E008C9121F08C0042AFAD23C
:1002A00003E011F8013B00F8013B521EF9D2704700
:1002B0002DE9F05F0546002092469B46884606469B
:1002C000814640241BE0284641464746224600F02E
:1002D00042F853465A46C01A914110D31146184667
:1002E000224600F029F82D1A67EB01084F462246F6
:1002F0000120002100F020F817EB00094E41201EDC
:10030000A4F10104DFDC484631462A464346BDE8F5
:10031000F09F0000064C074D06E0E06840F0010346
:1003200094E8070098471034AC42F6D3FFF766FF15
:10033000741A0000941A0000202A04DB203A00FA04
:1003400002F1002070479140C2F1200320FA03F32C
:10035000194390407047202A04DB203A21FA02F02A
:100360000021704721FA02F3D040C2F120029140EF
:100370000843194670474FF08040D0F8401241F4CE
:100380008031C0F84012704700F01F0201219140F7
:10039000034A800F02EB800002680A430260704744
:1003A000040200402DE9F84F0D460446FFF7E3FF35
:1003B0004FF08040484ED0F80012C4B141F0040123
:1003C000C0F80012102000F009FA4FF4002000904D
:1003D000424843492844B34688426DD84FF000094B
:1003E0004FF0FF324F464E46AE46012015E041F039
:1003F0000101C0F80012012000F0F0F90020E6E74A
:10040000F2B3032839D0042802D0022805D102E033
:100410004FEA8E0501E04FEA4E0502236AB3BBFBAB
:10042000F3F1304CDFF8BCC00C44CCF1000C644557
:1004300020D80224C1F35D0ADFF8A0C00AFB04F152
:1004400001EB0C08DFF8A0C0E0450ED8B1EB950F2A
:1004500002D9A1EB950101E0C1EB9501914204D2D3
:100460000A0099462746064604D040F20121641C42
:100470008C42E1D95B1C202BD0D9401C042800E021
:1004800000E0BDD91948009900EB8630184A0843AE
:1004900002EB49210843B91E08434FF08041C1F8DF
:1004A0004002042000F09AF906FB09F6BBFBF6F0C7
:1004B00078434000BDE8F88F5CB10E494FF08040B2
:1004C000C0F84012042000F089F9BDE8F84F00F0B0
:1004D0009FB844F21E21F1E7001BB700800F05FD15
:1004E0008074D21A00F7C2FFC068780400C0FFFF12
:1004F00000FEFFFF1E4208004FF08041D1F80022AD
:100500000243C1F80022704710B500F0A1FC014879
:10051000006810BD000000204FF08040D0F80002BD
:10052000C00700D000487047001BB7004FF0804064
:10053000D0F80002800702D54FF400407047002039
:100540007047000010B500F083FC4FF08041D1F8F7
:1005500034024207134817D0D1F8342202F00702C0
:10056000012A13D0D1F8342202F00702022A10D057
:10057000D1F8342202F00702032A0DD0D1F8341248
:1005800001F0070104290AD0006810BD0068400886
:1005900010BD0068800810BD0068C00810BD00686C
:1005A000000910BD0000002010B500F051FC4FF014
:1005B0008041D1F8340210F0700F144817D0D1F8F0
:1005C0003422C2F30212012A13D0D1F83422C2F32A
:1005D0000212022A10D0D1F83422C2F30212032AE6
:1005E0000DD0D1F83412C1F3021104290AD00068E9
:1005F00010BD0068400810BD0068800810BD00688C
:10060000C00810BD0068000910BD000000000020F7
:1006100008B510A10020096800914FF08041D1F881
:10062000401211F4A02F13D10B488A0310D4C1F348
:100630000800C1F38132094B801C1DF80220C1F370
:1006400044215843491C11FB02F1B0FBF1F0C000FA
:1006500008BD000001020204001BB700C0C62D0047
:1006600070B54FF080440646D4F8500200F01005F3
:100670001B48864200D90646D4F8000240F0040028
:10068000C4F80002102004F5007400F0A7F82069F7
:1006900040F007002061206A20F00F0020622068EF
:1006A000A4F50074C007314604D00020FFF77AFE9D
:1006B000064608E04FF40020FFF774FE0646D4F823
:1006C000500200F010050021022000F00BF82DB9B7
:1006D000D4F8000220F00400C4F80002304670BDD7
:1006E00000B0710B2DE9F0414FF080440746D4F87B
:1006F00050020E4600F01005D4F8000240F004004D
:10070000C4F80002102004F5007400F067F82069B6
:1007100040F007002061206A20F00F003043206283
:10072000206920F0070038432061A4F5007400F030
:100730008FFB002D05D1D4F8000220F00400C4F88E
:100740000002BDE8F0810000F0B510F47F3F2ED02C
:100750004FF08043D3F8F431DFF878C0DFB21D4B9F
:10076000C0F381440C3B6FEA90450CF1040603EBA7
:100770008403012F02D0022C0DD001E0022C02D004
:10078000AC070AD00AE0C343DC06134B06D000F0E6
:100790001F041D2C02D0634600E033461C68C0F3E2
:1007A0008725C0F34416B540AC4314431C60420E89
:1007B00052070ED0084BC0F30172183B03EB8202C4
:1007C0001368C0F34264C0F304508440A3430B4356
:1007D0001360F0BD2C0200402802004030B5012417
:1007E00005460849A20705E0081EA1F1010101DC48
:1007F000002404E0D2F8503235EA0300F4D1204658
:1008000030BD000080F5200010B54FF08040816EB3
:1008100021F00F018166816E21F0F0018166816E09
:1008200021F470618166094C01221146204600F0D6
:1008300041FA01220221204600F03CFA2046012222
:10084000BDE81040042100F035BA0000C04100406E
:100850007CB54FF08044D4F8040240F00400C4F8A2
:10086000040200F0D5FA00F09FF90221684600F07A
:10087000B1F9002803DA254925A000F05BFD0098B6
:100880004FF4FC26C0074FF0000502D10198B0429A
:1008900031D02248016841F0100101600098022126
:1008A00020F00100CDE90006684600F0BDF90028FF
:1008B00003DA16491AA000F03DFD0221684600F057
:1008C00089F90098C00702D10198B0420AD017A058
:1008D00000F030FD00F028F9C4F800510B491BA0CE
:1008E00000F028FD1CA000F025FD00F00DFA002806
:1008F000FBD00120A06000F083F9014619A000F0B0
:1009000019FD00F011F9C4F800517CBD641A000013
:100910002573203A20310D0A0000000000C000407D
:100920002573203A20320D0A000000004572726FD4
:10093000723A2050726F6772616D20436F6E666904
:1009400067204661696C6564210A00002573203ABE
:1009500020330D0A0000000063686970207265731F
:1009600065740A004461746120466C6173682042BA
:100970006173652041646472657373205B30782510
:100980003038585D0D0A00002DE9F0410D4606464D
:1009900000244FF4806755F8241006EB840000F023
:1009A00035F9641CBC42F6D30020BDE8F08100009C
:1009B0002DE9F04717460E46904600F5FC2500F05D
:1009C00027FA00F0F1F8DFF85090D9F8001041F064
:1009D0000801C9F800100DE0002405EB840000F0C8
:1009E000EBF848F82400641C022CF6D308370835CD
:1009F000B846083E082EEFDAD9F8001021F00801B9
:100A0000C9F8001000F090F84FF080410020C1F8C4
:100A10000001BDE8F087000000C000402DE9F04172
:100A20000E4600F5FC2500244FF4806705EB84009A
:100A300000F0C2F846F82400641CBC42F6D3BDE8BE
:100A4000F08100002DE9F05F17460E46054600F0E4
:100A5000DFF900F0A9F8DFF8C4B0DBF8000040F0DF
:100A60000800CBF800004FF4805A05F5FC255645E8
:100A700012D1280510D1284600F05EF854463946B8
:100A80002846FFF781FFA6F5805605F5805507F546
:100A90008057A642F3D232E02149C5F30B0005EAA4
:100AA00001095FEA000801D1564504D21D49A9F5A4
:100AB000FC20FFF7B3FFC8F58054A64200D23446AD
:100AC0004FEAE872002008EB9278E217154904EB30
:100AD000927C06E057F8202000EBA803401C41F868
:100AE0002320B0EBAC0FF5DB484600F025F80D49AC
:100AF0004846FFF749FF361B25442744CCD1DBF895
:100B0000001021F00801CBF8001000F00DF84FF0B4
:100B100080410020C1F80001BDE8F09F00C0004006
:100B200000F0FF00400000200248016821F00101B0
:100B30000160704700C0004002460020B2F5001F6F
:100B400012D00A492223CB604A6001220A610A6955
:100B5000D207FCD10A68520605D5086840F040006B
:100B600008604FF0FF30704700F002B800C000404E
:100B70000B4900202222CA604FF400124A60094A41
:100B80008A6001220A610A69D207FCD10A6852060A
:100B900005D5086840F0400008604FF0FF3070470E
:100BA00000C0004003AA55000248016841F001015D
:100BB0000160704700C0004005490022CA604860DB
:100BC000012008610869C007FCD1886870470000EF
:100BD00000C0004030B504460D4600234FF44010DD
:100BE000FFF7EAFF2060022D02D24FF0FF3303E04F
:100BF0000248FFF7E1FF6060184630BD0400300096
:100C0000014840697047000000C00040054A2123A8
:100C1000D36050609160012010611069C007FCD161
:100C20007047000000C000402DE9F0471F4E054608
:100C30008846306840F010003060B7013846FFF752
:100C40007BFF3846FFF7B8FF4FF0FF3A401C1CD13E
:100C5000381DFFF7B1FF401C17D11548FFF7ACFF57
:100C60004AF2A651C84210D10024B94615E009EB5A
:100C7000840055F824100746FFF7C8FF3846FFF7F1
:100C80009BFF55F82410884206D0306820F01000F1
:100C900030605046BDE8F087641C4445E7D33068B7
:100CA00020F0100030600020F4E7000000C0004099
:100CB00008003000F0B500230127032507FA03F4EC
:100CC0008C4309D106685C0005FA04FC26EA0C0690
:100CD00002FA04F4264306605B1C102BEED3F0BD31
:100CE000044603A000F026FB204600F037FEFEE796
:100CF000496E2048617264204661756C74204861B9
:100D00006E646C65720A000002488069C0F300706E
:100D1000704700000000074000F01F0201219140D1
:100D20004009800000F1E020C0F800117047000089
:100D3000BFF34F8F05480168054A01F4E061114394
:100D40000160BFF34F8F00BFFDE700000CED00E036
:100D50000400FA0570B55920840716218822C4F8CA
:100D60000001C4F80011C4F80021D4F80031002BB0
:100D7000F5D04FF04020D0F8401121F0F001C0F83C
:100D800040110520FFF7B8FB1120FFF727FD0A20CF
:100D9000FFF7B2FB0A20FFF721FD1448FFF760FCC4
:100DA0001120C4F83402124D2846FFF7EDFA002254
:100DB0004FF040712846FFF7C7FCE06B20F47F003E
:100DC000E063E06B40F4CC00E0630A4D2846FFF797
:100DD000DBFA00224FF4E0412846FFF7B5FC00F0B3
:100DE00037F80020C4F8000170BD000000B0710B9E
:100DF000103D80570300C05E0121044A814002EB90
:100E0000106002680A438A4302607047080000408D
:100E1000592110B5880716228823C0F80011C0F8A0
:100E20000021C0F80031D0F80041002CF5D010BDF1
:100E300006498A691202FCD40A2804D10D220A60EC
:100E40008A691202FCD40860704700000000074065
:100E500010B5FFF7DDFB0E4A4FF080439060D3F8EA
:100E6000101201F00701022903D002F10C0050F822
:100E70002100D3F8201201F00F01491CB0FBF1F062
:100E80000449106008444900B0FBF1F0506010BD07
:100E90000000002020A107001A48016841F47001F9
:100EA00001601948C16C21F00F0141F00801C164D3
:100EB0004FF08040D0F8981241F48021C0F8981289
:100EC000D0F8081241F00201C0F808120F49D1F819
:100ED000042102F0F732C1F80421D1F8082102F010
:100EE000F732C1F80821D0F8081221F00201C0F849
:100EF00008124FF04020D0F8401121F0F001C0F866
:100F00004011704788ED00E000C000400010044030
:100F100010B50A4C4FF47A724FF00061204600F091
:100F20004BF8206840F0005020602120FFF7F4FECD
:100F3000206840F08040206010BD000000010540A6
:100F400010B588B00446202217496846FFF79EF97D
:100F5000164A174B9003944204D1D0F81402C0F300
:100F6000022110E09C4204D1D0F81402C0F30231F7
:100F700009E01049D0F814028C4202D1C0F30241BA
:100F800001E0C0F30251022903D05DF8210008B04E
:100F900010BD944201D09C4202D1FFF7D3FAF6E78C
:100FA000FFF702FBF3E70000441A000000000540D1
:100FB000000105400010054070B516460D46044678
:100FC000FFF7BEFF0023B6EB500F01D9022206E067
:100FD000B0FBF6F2130E02D0591CB2FBF1F21D4326
:100FE000256062605B1C5A43B0FBF2F070BD0000EC
:100FF0000F4800B58168C1F30001002916D0012116
:10100000816000F0FFFC0B4A50684FF47A71B0FB2E
:10101000F1F301FB130040B90748016881F00101B9
:101020000160106840F002001060506800BD0000D0
:101030000001054030000020C049004010B50B4CB5
:10104000E06910F4885F02D104E000F049F9A16979
:101050004904FAD5A169204611F0710F05D0BDE809
:1010600010404FF4105100F087B810BD0000074049
:1010700010B51E48FFF7C0FE1D4C4FF4E13120466D
:1010800000F098F81421204600F020F9A06820F024
:101090001000A060A06840F02000A060606840F6EA
:1010A0001101084360602420FFF736FEFFF72CFA99
:1010B000014610A000F03EF9FFF72EFA014614A0F9
:1010C00000F038F9FFF732FA014617A000F032F9C4
:1010D000FFF738FA01461AA000F02CF9FFF764FA7E
:1010E0000146BDE810401DA000F024B91000000426
:1010F000000007400D0A434C4B5F47657443505551
:1011000046726571203A202538640D0A00000000FF
:10111000434C4B5F47657448585446726571203A9A
:10112000202538640D0A0000434C4B5F4765744C22
:10113000585446726571203A202538640D0A000023
:10114000434C4B5F47657450434C4B30467265715E
:10115000203A202538640D0A00000000434C4B5F04
:1011600047657450434C4B3146726571203A2025D7
:1011700038640D0A000000004A0503D57022826120
:10118000082282610A0503D5426942F001024261E8
:101190008A0401D5064A82614A0401D51F224264AD
:1011A000090404D58021C16140F20F318163704789
:1011B000010000012DE9FF4104463C480F4600258F
:1011C0000FC88DE80F003A492E464FF080408C4200
:1011D00006D1D0F81412D0F82002C1F301652AE03C
:1011E00034498C4206D1D0F81412D0F82002C1F351
:1011F00081652BE030498C4208D1D0F81C12D0F820
:101200003002C1F3016500F00F0621E02B498C424A
:1012100008D1D0F81C12D0F83002C1F38165C0F3B8
:10122000031615E026498C4208D1D0F81C12D0F8DC
:101230003002C1F30175C0F3032609E021498C4255
:1012400006D1D0F81C12D0F830028D0FC0F303364F
:10125000002020630320E060A0681B490840A060D4
:10126000E846012D02D1FFF7D3F90190002F1AD0E3
:1012700058F82510761CB1FBF6F000EB5700B0FBD8
:10128000F7F0801EB0F5803F0AD3B1FBF6F000EB1B
:10129000C700B0FBF7F06FF0010101EB101001E0A7
:1012A00040F040506062BDE8FF810000141A000069
:1012B00000000740001007400020074000300740B2
:1012C00000400740005007400FFFF0FF026A22F085
:1012D000FF020A430262416841F4006141607047C5
:1012E0000E4810B50068C0B2782814D0582812D023
:1012F0007F2804D9BDE8104009A000F01BB85A2887
:1013000009D004DC312808D0582806D103E0782819
:1013100001D07A2801D1FFF70BFD10BD0000074076
:10132000696E76616C696420636F6D6D616E640DCA
:101330000A0000000FB4054B10B503A9044A029837
:1013400000F018F810BC5DF814FB0000D71700007F
:101350002C00002002E008C8121F08C1002AFAD1A0
:1013600070477047002001E001C1121F002AFBD125
:10137000704700002DE9FF4F8DB00F46054600264F
:1013800006E025280BD0DDE90F1290476D1C761C76
:1013900028780028F5D111B03046BDE8F08F002440
:1013A000A246A1460122EC4900E0044315F8013FA2
:1013B000203B02FA03F00842F7D128782A2810D0FF
:1013C0006FF02F022878A0F13001092914D80AEB18
:1013D0008A0102EB410144F0020400EB010A6D1C9A
:1013E000F0E701CF5FEA000A03D544F40054CAF1E4
:1013F000000A44F002046D1C28782E2817D115F835
:10140000010F44F004042A280ED06FF02F02287830
:10141000A0F1300109290AD809EB890102EB410149
:1014200000EB01096D1CF2E757F8049B6D1C28784E
:101430006C280FD006DC4C2817D068280DD06A28FD
:1014400014D104E0742810D07A280FD10DE044F4B0
:1014500000140AE044F4801401E044F44014697874
:10146000814202D104F580146D1C6D1C2A786E2A0D
:101470001FD00CDC632A31D004DC002A8BD0582A20
:1014800011D1A3E0642A68D0692A0CD165E0732ADF
:101490002ED004DC6F2A73D0702A04D19BE0752A09
:1014A0006FD0782A6ED01046DDE90F129047761C77
:1014B00050E1C4F30250022806D0032809D00428C2
:1014C00001CF09D0066045E101CFF117C0E9006105
:1014D00040E101CF06803DE106703BE117F8040BC7
:1014E0008DF8000000208DF80100EB46012003E09C
:1014F00057F804BB4FF0FF3061074FF0000102D4F2
:101500000DE008F10101884649450FDA8045F8DB16
:101510001BF808100029F4D108E008F10101884601
:101520008142FADB1BF808100029F6D1DDE90F2310
:10153000AAEB08008146214600F036F9304400EB62
:10154000080604E0DDE90F121BF8010B9047B8F123
:101550000108F7D221464846F7E00A21C4F30253B6
:101560004FF0000B0891022B04D001CFC117032BC1
:1015700009D00AE0FF1D27F00707F7E8020108E09D
:1015800032E01FE020E000B2C117042B01D140B2CD
:10159000C117031E71F1000307DA4FF0000CD0EB06
:1015A0000C006CEB01012D2302E0230504D52B2355
:1015B0008DF82430012303E0E30701D02023F7E76F
:1015C000984658E00A2110E010210EE010204FF05C
:1015D000000B08900CE010214FF0000B44F00404C5
:1015E0004FF00809089103E008214FF0000B089123
:1015F000C4F30253022B04D001CF0021032B06D0E9
:1016000006E0FF1D27F00707F7E8020103E080B2BC
:10161000042B00D1C0B24FF0000823072BD5702A4D
:1016200007D0DDF820C08CF0100C5CEA0B0C05D064
:101630000EE040238DF82430012308E050EA010336
:1016400006D030238DF824308DF8252002239846CB
:10165000DDF820C08CF0080C5CEA0B0C0BD150EAD2
:10166000010301D1630706D530238DF824304FF0F4
:101670000108A9F10109582A04D038A20B9208AA3E
:101680000A920BE03AA2F9E75B46089AFEF710FED1
:101690000B9B9B5C0A9A521E0A92137050EA01023D
:1016A000F2D10A98ADEB000000F1200B600702D5E3
:1016B00024F4803401E04FF00109D94502DDA9EBA3
:1016C0000B0000E0002000EB0B0141440890AAEB66
:1016D000010AE00306D4DDE90F232146504600F05D
:1016E00063F806444FF0000908E009A911F8090061
:1016F000DDE90F12904709F10109761CC145F4DBC1
:10170000E0030CD5DDE90F232146504600F04CF8EC
:10171000064404E0DDE90F1230209047761C08995A
:10172000481E08900029F5DC08E00A980A9900781C
:10173000491C0A91DDE90F129047761CBBF10001AC
:10174000ABF1010BF1DC21465046DDE90F2300F03F
:1017500019F806446D1C1BE60928010030313233AC
:1017600034353637383961626364656600000000DD
:1017700030313233343536373839414243444546C7
:10178000000000002DE9F041044600251E461746E2
:10179000880404D405E039462020B0476D1C641E3F
:1017A000F9D52846BDE8F0812DE9F0410446002531
:1017B0001E469046C80301D5302700E02027880444
:1017C00004D505E041463846B0476D1C641EF9D586
:1017D0002846BDE8F08110B50446FFF729FB2046F6
:1017E00010BD00002DE9F04136480024016889074A
:1017F00065D5016821F002010160F02600F10802C0
:1018000008213046FFF7D4F82E4D314608352EA07A
:101810002A68FFF78FFD28682A46801C2860082167
:101820003046FFF70FF910262A4608213046FFF709
:10183000BFF8314624A02A68FFF77CFD28682A46B5
:10184000401C286008213046FFF7FCF820262A4675
:1018500008213046FFF7ACF831461BA02A68FFF795
:1018600069FD28682A46401C286008213046FFF799
:10187000E9F83027134A07EB84060832082130467E
:10188000FFF796F8314615A02A68FFF753FD286840
:101890000C4A401C2860083208213046FFF7D2F875
:1018A000A007B0F1404F02D111A0FFF743FD641C27
:1018B000102CDFD3BDE8F0410DA0FFF73BBDBDE824
:1018C000F0810000300000203078253258203A2086
:1018D0003078253458200D0A000000003078253279
:1018E00058203A20307825345820202C2000000041
:1018F0000D0A00000024FFF72DFAFFF7B9FBFEF7F1
:1019000083FFFFF705FBFEF7A3FF134D0A202A46CE
:1019100028600821F020FFF795F81A2028602A4651
:1019200008211020FFF78EF82A2028602A46082177
:101930002020FFF787F8302604F13A00286006EBF4
:101940008400054A0821FFF77DF8641C102CF3D3AE
:10195000FFF748FFFCE700003800002010B5044600
:10196000016810A0FFF7E6FC11A06168FFF7E2FC38
:1019700012A0A168FFF7DEFC13A0E168FFF7DAFC14
:1019800014A02169FFF7D6FC15A06169FFF7D2FC0E
:1019900016A0A169FFF7CEFCE169BDE8104016A0D2
:1019A000FFF7C8BC723020203D20307825780A002F
:1019B000723120203D20307825780A0072322020B4
:1019C0003D20307825780A00723320203D20307881
:1019D00025780A00723132203D20307825780A00BF
:1019E0006C7220203D20307825780A00706320201A
:1019F0003D20307825780A00707372203D203078C1
:101A000025780A0002484168491C4160704700007F
:101A100030000020001BB700000000000080000024
:101A2000001BB700001BB700000000000080000092
:101A3000001BB700001BB700000000000080000082
:101A4000001BB700001BB700008000000000000072
:101A5000000000000000000010270000000000004F
:101A6000001BB70044617461466C617368496E691C
:101A700074000000941A00000000002040000000E4
:101A800054130000D41A0000400000200018000089
:101A900064130000001BB7000C000000001BB7001F
:101AA000001BB700008000000000000010270000AD
:101AB000000000000000000000000000001BB70054
:101AC0000000000000000000000000000000000016
:041AD0000000000012
:0400000500000225D0
:00000001FF
